{
  "_format": "hh-sol-artifact-1",
  "contractName": "drive3",
  "sourceName": "contracts/drive3.sol",
  "abi": [
    {
      "inputs": [
        {
          "internalType": "address",
          "name": "",
          "type": "address"
        },
        {
          "internalType": "address",
          "name": "",
          "type": "address"
        }
      ],
      "name": "access",
      "outputs": [
        {
          "internalType": "bool",
          "name": "",
          "type": "bool"
        }
      ],
      "stateMutability": "view",
      "type": "function"
    },
    {
      "inputs": [
        {
          "internalType": "address",
          "name": "",
          "type": "address"
        },
        {
          "internalType": "uint256",
          "name": "",
          "type": "uint256"
        }
      ],
      "name": "access_permit",
      "outputs": [
        {
          "internalType": "address",
          "name": "_add",
          "type": "address"
        },
        {
          "internalType": "bool",
          "name": "access",
          "type": "bool"
        }
      ],
      "stateMutability": "view",
      "type": "function"
    },
    {
      "inputs": [
        {
          "internalType": "string",
          "name": "_data",
          "type": "string"
        }
      ],
      "name": "add_data",
      "outputs": [],
      "stateMutability": "nonpayable",
      "type": "function"
    },
    {
      "inputs": [
        {
          "internalType": "address",
          "name": "",
          "type": "address"
        },
        {
          "internalType": "uint256",
          "name": "",
          "type": "uint256"
        }
      ],
      "name": "data",
      "outputs": [
        {
          "internalType": "string",
          "name": "",
          "type": "string"
        }
      ],
      "stateMutability": "view",
      "type": "function"
    },
    {
      "inputs": [
        {
          "internalType": "address",
          "name": "_add",
          "type": "address"
        }
      ],
      "name": "display",
      "outputs": [
        {
          "internalType": "string[]",
          "name": "",
          "type": "string[]"
        }
      ],
      "stateMutability": "view",
      "type": "function"
    },
    {
      "inputs": [
        {
          "internalType": "address",
          "name": "_add",
          "type": "address"
        }
      ],
      "name": "giveaccess",
      "outputs": [],
      "stateMutability": "nonpayable",
      "type": "function"
    },
    {
      "inputs": [
        {
          "internalType": "address",
          "name": "_add",
          "type": "address"
        }
      ],
      "name": "removeaccess",
      "outputs": [],
      "stateMutability": "nonpayable",
      "type": "function"
    }
  ],
  "bytecode": "0x608060405234801561001057600080fd5b5061130d806100206000396000f3fe608060405234801561001057600080fd5b506004361061007d5760003560e01c80636aad384b1161005b5780636aad384b146100eb578063e283b4dd1461011b578063e2cee25f1461014b578063eb39113f146101675761007d565b806356565c991461008257806357a997b91461009e57806366ebcabd146100cf575b600080fd5b61009c60048036038101906100979190610b8c565b610197565b005b6100b860048036038101906100b39190610c69565b61020b565b6040516100c6929190610cd3565b60405180910390f35b6100e960048036038101906100e49190610cfc565b610275565b005b61010560048036038101906101009190610d29565b610549565b6040516101129190610d69565b60405180910390f35b61013560048036038101906101309190610c69565b610578565b6040516101429190610e03565b60405180910390f35b61016560048036038101906101609190610cfc565b610631565b005b610181600480360381019061017c9190610cfc565b610852565b60405161018e9190610f31565b60405180910390f35b6000803373ffffffffffffffffffffffffffffffffffffffff1673ffffffffffffffffffffffffffffffffffffffff16815260200190815260200160002081908060018154018082558091505060019003906000526020600020016000909190919091509081610207919061115f565b5050565b6002602052816000526040600020818154811061022757600080fd5b90600052602060002001600091509150508060000160009054906101000a900473ffffffffffffffffffffffffffffffffffffffff16908060000160149054906101000a900460ff16905082565b600160003373ffffffffffffffffffffffffffffffffffffffff1673ffffffffffffffffffffffffffffffffffffffff16815260200190815260200160002060008273ffffffffffffffffffffffffffffffffffffffff1673ffffffffffffffffffffffffffffffffffffffff16815260200190815260200160002060009054906101000a900460ff16156105465760005b600260003373ffffffffffffffffffffffffffffffffffffffff1673ffffffffffffffffffffffffffffffffffffffff168152602001908152602001600020805490508110156104af578173ffffffffffffffffffffffffffffffffffffffff16600260003373ffffffffffffffffffffffffffffffffffffffff1673ffffffffffffffffffffffffffffffffffffffff16815260200190815260200160002082815481106103b9576103b8611231565b5b9060005260206000200160000160009054906101000a900473ffffffffffffffffffffffffffffffffffffffff1673ffffffffffffffffffffffffffffffffffffffff160361049c57600260003373ffffffffffffffffffffffffffffffffffffffff1673ffffffffffffffffffffffffffffffffffffffff168152602001908152602001600020818154811061045357610452611231565b5b90600052602060002001600080820160006101000a81549073ffffffffffffffffffffffffffffffffffffffff02191690556000820160146101000a81549060ff021916905550505b80806104a79061128f565b915050610307565b506000600160003373ffffffffffffffffffffffffffffffffffffffff1673ffffffffffffffffffffffffffffffffffffffff16815260200190815260200160002060008373ffffffffffffffffffffffffffffffffffffffff1673ffffffffffffffffffffffffffffffffffffffff16815260200190815260200160002060006101000a81548160ff0219169083151502179055505b50565b60016020528160005260406000206020528060005260406000206000915091509054906101000a900460ff1681565b6000602052816000526040600020818154811061059457600080fd5b906000526020600020016000915091505080546105b090610f82565b80601f01602080910402602001604051908101604052809291908181526020018280546105dc90610f82565b80156106295780601f106105fe57610100808354040283529160200191610629565b820191906000526020600020905b81548152906001019060200180831161060c57829003601f168201915b505050505081565b600160003373ffffffffffffffffffffffffffffffffffffffff1673ffffffffffffffffffffffffffffffffffffffff16815260200190815260200160002060008273ffffffffffffffffffffffffffffffffffffffff1673ffffffffffffffffffffffffffffffffffffffff16815260200190815260200160002060009054906101000a900460ff1661084f57600260003373ffffffffffffffffffffffffffffffffffffffff1673ffffffffffffffffffffffffffffffffffffffff16815260200190815260200160002060405180604001604052808373ffffffffffffffffffffffffffffffffffffffff168152602001600115158152509080600181540180825580915050600190039060005260206000200160009091909190915060008201518160000160006101000a81548173ffffffffffffffffffffffffffffffffffffffff021916908373ffffffffffffffffffffffffffffffffffffffff16021790555060208201518160000160146101000a81548160ff021916908315150217905550505060018060003373ffffffffffffffffffffffffffffffffffffffff1673ffffffffffffffffffffffffffffffffffffffff16815260200190815260200160002060008373ffffffffffffffffffffffffffffffffffffffff1673ffffffffffffffffffffffffffffffffffffffff16815260200190815260200160002060006101000a81548160ff0219169083151502179055505b50565b60603373ffffffffffffffffffffffffffffffffffffffff168273ffffffffffffffffffffffffffffffffffffffff1614806109145750600160003373ffffffffffffffffffffffffffffffffffffffff1673ffffffffffffffffffffffffffffffffffffffff16815260200190815260200160002060008373ffffffffffffffffffffffffffffffffffffffff1673ffffffffffffffffffffffffffffffffffffffff16815260200190815260200160002060009054906101000a900460ff165b61091d57600080fd5b6000808373ffffffffffffffffffffffffffffffffffffffff1673ffffffffffffffffffffffffffffffffffffffff168152602001908152602001600020805480602002602001604051908101604052809291908181526020016000905b82821015610a2757838290600052602060002001805461099a90610f82565b80601f01602080910402602001604051908101604052809291908181526020018280546109c690610f82565b8015610a135780601f106109e857610100808354040283529160200191610a13565b820191906000526020600020905b8154815290600101906020018083116109f657829003601f168201915b50505050508152602001906001019061097b565b505050509050919050565b6000604051905090565b600080fd5b600080fd5b600080fd5b600080fd5b6000601f19601f8301169050919050565b7f4e487b7100000000000000000000000000000000000000000000000000000000600052604160045260246000fd5b610a9982610a50565b810181811067ffffffffffffffff82111715610ab857610ab7610a61565b5b80604052505050565b6000610acb610a32565b9050610ad78282610a90565b919050565b600067ffffffffffffffff821115610af757610af6610a61565b5b610b0082610a50565b9050602081019050919050565b82818337600083830152505050565b6000610b2f610b2a84610adc565b610ac1565b905082815260208101848484011115610b4b57610b4a610a4b565b5b610b56848285610b0d565b509392505050565b600082601f830112610b7357610b72610a46565b5b8135610b83848260208601610b1c565b91505092915050565b600060208284031215610ba257610ba1610a3c565b5b600082013567ffffffffffffffff811115610bc057610bbf610a41565b5b610bcc84828501610b5e565b91505092915050565b600073ffffffffffffffffffffffffffffffffffffffff82169050919050565b6000610c0082610bd5565b9050919050565b610c1081610bf5565b8114610c1b57600080fd5b50565b600081359050610c2d81610c07565b92915050565b6000819050919050565b610c4681610c33565b8114610c5157600080fd5b50565b600081359050610c6381610c3d565b92915050565b60008060408385031215610c8057610c7f610a3c565b5b6000610c8e85828601610c1e565b9250506020610c9f85828601610c54565b9150509250929050565b610cb281610bf5565b82525050565b60008115159050919050565b610ccd81610cb8565b82525050565b6000604082019050610ce86000830185610ca9565b610cf56020830184610cc4565b9392505050565b600060208284031215610d1257610d11610a3c565b5b6000610d2084828501610c1e565b91505092915050565b60008060408385031215610d4057610d3f610a3c565b5b6000610d4e85828601610c1e565b9250506020610d5f85828601610c1e565b9150509250929050565b6000602082019050610d7e6000830184610cc4565b92915050565b600081519050919050565b600082825260208201905092915050565b60005b83811015610dbe578082015181840152602081019050610da3565b60008484015250505050565b6000610dd582610d84565b610ddf8185610d8f565b9350610def818560208601610da0565b610df881610a50565b840191505092915050565b60006020820190508181036000830152610e1d8184610dca565b905092915050565b600081519050919050565b600082825260208201905092915050565b6000819050602082019050919050565b600082825260208201905092915050565b6000610e6d82610d84565b610e778185610e51565b9350610e87818560208601610da0565b610e9081610a50565b840191505092915050565b6000610ea78383610e62565b905092915050565b6000602082019050919050565b6000610ec782610e25565b610ed18185610e30565b935083602082028501610ee385610e41565b8060005b85811015610f1f5784840389528151610f008582610e9b565b9450610f0b83610eaf565b925060208a01995050600181019050610ee7565b50829750879550505050505092915050565b60006020820190508181036000830152610f4b8184610ebc565b905092915050565b7f4e487b7100000000000000000000000000000000000000000000000000000000600052602260045260246000fd5b60006002820490506001821680610f9a57607f821691505b602082108103610fad57610fac610f53565b5b50919050565b60008190508160005260206000209050919050565b60006020601f8301049050919050565b600082821b905092915050565b6000600883026110157fffffffffffffffffffffffffffffffffffffffffffffffffffffffffffffffff82610fd8565b61101f8683610fd8565b95508019841693508086168417925050509392505050565b6000819050919050565b600061105c61105761105284610c33565b611037565b610c33565b9050919050565b6000819050919050565b61107683611041565b61108a61108282611063565b848454610fe5565b825550505050565b600090565b61109f611092565b6110aa81848461106d565b505050565b5b818110156110ce576110c3600082611097565b6001810190506110b0565b5050565b601f821115611113576110e481610fb3565b6110ed84610fc8565b810160208510156110fc578190505b61111061110885610fc8565b8301826110af565b50505b505050565b600082821c905092915050565b600061113660001984600802611118565b1980831691505092915050565b600061114f8383611125565b9150826002028217905092915050565b61116882610d84565b67ffffffffffffffff81111561118157611180610a61565b5b61118b8254610f82565b6111968282856110d2565b600060209050601f8311600181146111c957600084156111b7578287015190505b6111c18582611143565b865550611229565b601f1984166111d786610fb3565b60005b828110156111ff578489015182556001820191506020850194506020810190506111da565b8683101561121c5784890151611218601f891682611125565b8355505b6001600288020188555050505b505050505050565b7f4e487b7100000000000000000000000000000000000000000000000000000000600052603260045260246000fd5b7f4e487b7100000000000000000000000000000000000000000000000000000000600052601160045260246000fd5b600061129a82610c33565b91507fffffffffffffffffffffffffffffffffffffffffffffffffffffffffffffffff82036112cc576112cb611260565b5b60018201905091905056fea2646970667358221220d193ee259d3bdd24d0d46581389e9db168ab8334e0fded8f30cd7426081df0bd64736f6c63430008120033",
  "linkReferences": {},
  "deployedLinkReferences": {}
}